{
  "_format": "hh-sol-artifact-1",
  "contractName": "Lottery",
  "sourceName": "contracts/Lottery.sol",
  "abi": [
    {
      "inputs": [],
      "stateMutability": "nonpayable",
      "type": "constructor"
    },
    {
      "inputs": [],
      "name": "createPlayer",
      "outputs": [],
      "stateMutability": "payable",
      "type": "function"
    },
    {
      "inputs": [],
      "name": "createRandomNumber",
      "outputs": [
        {
          "internalType": "uint256",
          "name": "",
          "type": "uint256"
        }
      ],
      "stateMutability": "view",
      "type": "function"
    },
    {
      "inputs": [],
      "name": "getAddress",
      "outputs": [
        {
          "internalType": "address",
          "name": "",
          "type": "address"
        }
      ],
      "stateMutability": "view",
      "type": "function"
    },
    {
      "inputs": [],
      "name": "getLength",
      "outputs": [
        {
          "internalType": "uint256",
          "name": "",
          "type": "uint256"
        }
      ],
      "stateMutability": "view",
      "type": "function"
    },
    {
      "inputs": [],
      "name": "getPlayers",
      "outputs": [
        {
          "internalType": "address payable[]",
          "name": "",
          "type": "address[]"
        }
      ],
      "stateMutability": "view",
      "type": "function"
    },
    {
      "inputs": [],
      "name": "getWinner",
      "outputs": [
        {
          "internalType": "address",
          "name": "",
          "type": "address"
        }
      ],
      "stateMutability": "view",
      "type": "function"
    },
    {
      "inputs": [],
      "name": "owner",
      "outputs": [
        {
          "internalType": "address",
          "name": "",
          "type": "address"
        }
      ],
      "stateMutability": "view",
      "type": "function"
    },
    {
      "inputs": [
        {
          "internalType": "uint256",
          "name": "",
          "type": "uint256"
        }
      ],
      "name": "players",
      "outputs": [
        {
          "internalType": "address payable",
          "name": "",
          "type": "address"
        }
      ],
      "stateMutability": "view",
      "type": "function"
    },
    {
      "inputs": [],
      "name": "selectWinner",
      "outputs": [],
      "stateMutability": "nonpayable",
      "type": "function"
    },
    {
      "inputs": [],
      "name": "sendMoney",
      "outputs": [],
      "stateMutability": "nonpayable",
      "type": "function"
    },
    {
      "inputs": [],
      "name": "winner",
      "outputs": [
        {
          "internalType": "address payable",
          "name": "",
          "type": "address"
        }
      ],
      "stateMutability": "view",
      "type": "function"
    }
  ],
  "bytecode": "0x608060405234801561001057600080fd5b50336000806101000a81548173ffffffffffffffffffffffffffffffffffffffff021916908373ffffffffffffffffffffffffffffffffffffffff16021790555061097c806100606000396000f3fe60806040526004361061009c5760003560e01c80638da5cb5b116100645780638da5cb5b146101435780638e7ea5b21461016e578063be1c766b14610199578063cbedbf5a146101c4578063dfbf53ae146101db578063f71d96cb146102065761009c565b806333a99e04146100a157806338cc4831146100b85780633fa9fcf8146100e35780635f51d778146100ed5780638b5b9ccc14610118575b600080fd5b3480156100ad57600080fd5b506100b6610243565b005b3480156100c457600080fd5b506100cd610339565b6040516100da9190610648565b60405180910390f35b6100eb610341565b005b3480156100f957600080fd5b506101026103bb565b60405161010f919061067c565b60405180910390f35b34801561012457600080fd5b5061012d61044e565b60405161013a9190610767565b60405180910390f35b34801561014f57600080fd5b506101586104dc565b6040516101659190610648565b60405180910390f35b34801561017a57600080fd5b50610183610500565b6040516101909190610648565b60405180910390f35b3480156101a557600080fd5b506101ae61052a565b6040516101bb919061067c565b60405180910390f35b3480156101d057600080fd5b506101d9610537565b005b3480156101e757600080fd5b506101f06105a2565b6040516101fd9190610798565b60405180910390f35b34801561021257600080fd5b5061022d600480360381019061022891906107e4565b6105c8565b60405161023a9190610798565b60405180910390f35b60008054906101000a900473ffffffffffffffffffffffffffffffffffffffff1673ffffffffffffffffffffffffffffffffffffffff163373ffffffffffffffffffffffffffffffffffffffff161461029b57600080fd5b60006002805490506102ab6103bb565b6102b59190610840565b9050600281815481106102cb576102ca610871565b5b9060005260206000200160009054906101000a900473ffffffffffffffffffffffffffffffffffffffff16600160006101000a81548173ffffffffffffffffffffffffffffffffffffffff021916908373ffffffffffffffffffffffffffffffffffffffff16021790555050565b600033905090565b67016345785d8a000034101561035657600080fd5b6002339080600181540180825580915050600190039060005260206000200160009091909190916101000a81548173ffffffffffffffffffffffffffffffffffffffff021916908373ffffffffffffffffffffffffffffffffffffffff160217905550565b60008060009054906101000a900473ffffffffffffffffffffffffffffffffffffffff1673ffffffffffffffffffffffffffffffffffffffff163373ffffffffffffffffffffffffffffffffffffffff161461041657600080fd5b334260028054905060405160200161043093929190610909565b6040516020818303038152906040528051906020012060001c905090565b606060028054806020026020016040519081016040528092919081815260200182805480156104d257602002820191906000526020600020905b8160009054906101000a900473ffffffffffffffffffffffffffffffffffffffff1673ffffffffffffffffffffffffffffffffffffffff1681526020019060010190808311610488575b5050505050905090565b60008054906101000a900473ffffffffffffffffffffffffffffffffffffffff1681565b6000600160009054906101000a900473ffffffffffffffffffffffffffffffffffffffff16905090565b6000600280549050905090565b600160009054906101000a900473ffffffffffffffffffffffffffffffffffffffff1673ffffffffffffffffffffffffffffffffffffffff166108fc479081150290604051600060405180830381858888f1935050505015801561059f573d6000803e3d6000fd5b50565b600160009054906101000a900473ffffffffffffffffffffffffffffffffffffffff1681565b600281815481106105d857600080fd5b906000526020600020016000915054906101000a900473ffffffffffffffffffffffffffffffffffffffff1681565b600073ffffffffffffffffffffffffffffffffffffffff82169050919050565b600061063282610607565b9050919050565b61064281610627565b82525050565b600060208201905061065d6000830184610639565b92915050565b6000819050919050565b61067681610663565b82525050565b6000602082019050610691600083018461066d565b92915050565b600081519050919050565b600082825260208201905092915050565b6000819050602082019050919050565b60006106ce82610607565b9050919050565b6106de816106c3565b82525050565b60006106f083836106d5565b60208301905092915050565b6000602082019050919050565b600061071482610697565b61071e81856106a2565b9350610729836106b3565b8060005b8381101561075a57815161074188826106e4565b975061074c836106fc565b92505060018101905061072d565b5085935050505092915050565b600060208201905081810360008301526107818184610709565b905092915050565b610792816106c3565b82525050565b60006020820190506107ad6000830184610789565b92915050565b600080fd5b6107c181610663565b81146107cc57600080fd5b50565b6000813590506107de816107b8565b92915050565b6000602082840312156107fa576107f96107b3565b5b6000610808848285016107cf565b91505092915050565b7f4e487b7100000000000000000000000000000000000000000000000000000000600052601260045260246000fd5b600061084b82610663565b915061085683610663565b92508261086657610865610811565b5b828206905092915050565b7f4e487b7100000000000000000000000000000000000000000000000000000000600052603260045260246000fd5b60008160601b9050919050565b60006108b8826108a0565b9050919050565b60006108ca826108ad565b9050919050565b6108e26108dd82610627565b6108bf565b82525050565b6000819050919050565b6109036108fe82610663565b6108e8565b82525050565b600061091582866108d1565b60148201915061092582856108f2565b60208201915061093582846108f2565b60208201915081905094935050505056fea2646970667358221220f8fa85538608778d15cb538dcb1a0eb029643c8987282b71f9d98069600b69b364736f6c63430008130033",
  "linkReferences": {},
  "deployedLinkReferences": {}
}